:060000000200690207FC8A
:03000B0002081DCB
:030013000207FEE3
:03001B0002081FB9
:030023000210E5E3
:03002B00020821A7
:03003300020F7544
:03003B000210E6CA
:03004300020100B7
:03004B000207FDAC
:03005300020100A7
:03005B000207FF9A
:0300630002080090
:0600C20075080002006653
:030066000204157C
:2001C10030000790E6A07401F022D2002290E6B8E0FFE4BF400104FE602390E6B9E0FDBD17
:2001E100A81BC20090E680E0FD74084DF090000A12109E90E680E0FD74F75DF022EE601A7E
:2002010090E6B9E0FDBDB01290E6BAE0FCA3E08C08C20090E6A07480F022E4BFC00104FDEC
:200221007006EE700302032C90E6B9E0FCBCA2028008BCA902800302032CEF339201BCA98D
:2002410003D38001C3920250047C5180027C508C0990E6BAE0F50AA3E0F50B90E6BEE0F84D
:20026100A3E0F9C200E849700122C3E89440E9940050068803890480047B407C00300149DC
:2002810090E6A0E0FC7A0020E1F67525407526E77527008B28752900850A23850B24A202A7
:2002A1009204850982120428400790E6A07401F02290E6B57401F090E68AE4F090E68BEB25
:2002C100F090E6A07480F0804C90E6B57401F090E68AE4F090E68BF090E6A07480F090E6A2
:2002E100A0E0FC7A0020E1F6752E40752FE77530008B31753200850A2C850B2DA2029205E7
:200301008508337534A6850982120496400790E6A07401F0227C00E8C39BF8E99CF9EB25E5
:200321000AF50AEC350BF50B020266ED7006EE700302040E90E6B9E0FEBEA302800302044C
:200341000EEF33920390E6BAE0FEA3E0FF90E6BEE0FCA3E0FDC200EC4D700122C3EC9440A6
:20036100ED940050068C028D0380047A407B0030034590E6A0E0F97B0020E1F68E4F8F5039
:200381008A5175520090E740C007C006C005C004C0021205F6D002D004D005D006D0079066
:2003A100E6B57401F090E68AE4F090E68BEAF090E6A07480F0804490E6B57401F090E68A3F
:2003C100E4F090E68BF090E6A07480F090E6A0E0F97B0020E1F68E828F83754F407550E72A
:2003E1008C518D52C007C006C005C004C0021205F6D002D004D005D006D0077B00ECC39A6F
:20040100FCED9BFDEA2EFEEB3FFF02035890E6A07401F02290E6007412F0C20A12082330FC
:0704210000FD1201CE80F87E
:20112F0012010002FFFFFF40B40413860000010200010904000000FFFFFF000902000001E3
:20114F0001008032411100004A11671181112F110000015711025911776869746571756199
:20116F00726B407768697465717561726B2E6F7267004658322073657269657320437970C1
:16118F00726573732D636C61737320626F6F746C6F6164657200FF
:20042800C007C006C005AF8230040CAE248E2AAD237E008D2B8004AE238E2AEF2FFFF582C0
:20044800120656503EA204E433FD7E0074012DF50CE43EF50D90002A75F04012069450231B
:2004680074014FF582120656501985280E85290F8525828526838527F01207024002800710
:20048800D3800412066DC3D005D006D00722C007C006C005C004C003C002C001C000AF82C4
:2004A800E4F535F536EF2FFFF58212065640030205D48533F005F0753B01753C00800BE56C
:2004C8003B253BF53BE53C33F53CD5F0F2E4B5340474018001E4FAC3E5359531E5369532E3
:2004E80040030205D430050CAE2D8E37AD2C7E008D388004AE2C8E37A205E433FD7E007409
:20050800012DF50CE43EF50D90003775F04012069440030205D4C002AD3BAE3C8D4F8E50FC
:20052800852C82852D83C007C006C005C003C001C000120F77AA82AC83D000D001D003D07E
:2005480005D006D007EDC39AF539EE9CF53AE531C39535FDE5329536FEC3ED9539EE953AF5
:20056800D002500DE531C39535F539E5329536F53AE535252EFCE536352FFDAE3085390CD5
:20058800853A0D8C828D838EF0120694503E12066D400280487E00EA7006C3EE9534500A70
:2005A8008F8212065640030E80EDEEB53403C3802CE539252CF52CE53A352DF52DE5392537
:2005C80035F535E53A3536F5360204DF12066DE531B53508E532B53603D38001C3D000D0D1
:0E05E80001D002D003D004D005D006D00722E7
:2005F600AA82AB83AC4FAD50AE51AF52EE60010FEF601775AF078A9B8B9A8C9E8D9D90E690
:0B0616007CE090E67BF0DEF6DFF422D3
:20062100C007C00690E678E0FF7E0020E00810060280F1C3801A90E678E0FF7E0030E20393
:20064100C3800D30070990E678E0FFA2E18001D3D006D00722C007AF8290E6787480F0903C
:20066100E679EFF0D207120621D00722C007C00690E678E0FF7E0030E203C3801190E67801
:200681007440F090E678E0FF7E0020E6F6D3D006D00722C007C006C005C004C003C002C071
:2006A10001C000AD82AE83AFF0E50C450D7003D3803E7B007C00EBB50C06ECB50D02802435
:2006C100EB2DF8EC3EF98F02888289838AF0121104F890E679F0D20712062150070BBB0098
:2006E100D50C80D2EBB50C07ECB50D03D38001C3D000D001D002D003D004D005D006D007AF
:2007010022C007C006C005C004C003C002C001C00085821085831185F012E50E450F700428
:20072100D30207EB7401B50E06E4B50F028002800690E6787420F090E679E07B007C007950
:20074100007A00E9B50E06EAB50F02807AC20712062140030207DF740229F8E43AFFE8B544
:200761000E0AEFB50F0690E6787420F0740129FEE43AFFEEB50E2CEFB50F2875AF03759A8E
:20078100E6759B7890E67B7440F0E0AFE0E92510F8EA3511FDAE1288828D838EF0EF120842
:2007A100018018E92510FDEA3511FEAF1290E679E0F88D828E838FF012080109B900010A47
:2007C10089038A0402074490E678E0FF7E0030E203C3801690E678E0FF7E0020E6F6EBB511
:1B07E1000E07ECB50F03D38001C3D000D001D002D003D004D005D006D0072260
:06009800E478FFF6D8FD3C
:0107FC0032CA
:0107FD0032C9
:0107FE0032C8
:200076007900E94400601B7A009011A9780075923EE493F2A308B800020592D9F4DAF27555
:0200960092FFD7
:0107FF0032C7
:0108000032C5
:030100000208D121
:030104000210E7FF
:03010800020FD013
:03010C000210C21C
:03011000021103D6
:03011400021128AD
:03011800020FC50E
:03011C000201B825
:03012000020FF1DA
:030124000211269F
:03012800020FF2D1
:03012C0002112796
:0301300002112E8B
:0301340002081CA2
:0301380002081E9C
:03013C0002082294
:03014000020FEEBD
:030144000201B8FD
:0301480002112081
:03014C000211217C
:0301500002112277
:0301540002112372
:030158000211246D
:03015C0002112568
:030160000210E8A2
:030164000201B8DD
:030168000201B8D9
:03016C000201B8D5
:03017000020FF08B
:03017400020FF384
:0301780002101161
:03017C000210135B
:03018000020FF477
:0301840002101254
:030188000210144E
:03018C000210D886
:03019000020F76E5
:03019400020FC691
:03019800020FD182
:03019C00020FED62
:0301A000020FC487
:0301A400020FC780
:0301A800020FEC57
:0301AC00020FEF50
:0301B00002082022
:0301B40002112D08
:0101B8003214
:1B08010020F71130F6138883A88220F509F6A8837583002280FEF280F5F022F6
:01081C0032A9
:01081D0032A8
:01081E0032A7
:01081F0032A6
:0108200032A5
:0108210032A4
:0108220032A3
:20082300C209753D00D2E890E668E0FF74084FF090E65CE0FF74014FF090E65D7401F0D297
:20084300AF90E680E0FF7E0020E10990E680E0FF74024FF0300A0F90E680E0FF74084FF026
:2008630090000A12109E90E680E0FF74F75FF022AF82BF00028037BF01028036BF02028006
:2008830039BF04028038BF06028037BF08028036BF80028019BF8102801CBF8202801BBF4D
:2008A3008402801ABF86028019BF881E801890E6A02290E6A12290E6A22290E6A32290E6DC
:2008C300A42290E6A52290E6A62290000022C022C0E0C0F0C082C083C007C006C005C00455
:2008E300C003C002C001C000C0D075D000C08675860090E6B8E0FFE4BF800104FE6019909D
:20090300E6B9E0FDBD061190E6BAE0FCA3E0F5828C141210D9020B5FEF702890E6B9E0FDE4
:20092300BD092090E6BAE0FCA3E08C821210E9500990E6A07480F0020B5F90E6A07401F0EC
:20094300020B5FEE600E90E6B9E0FDBD0806120FF5020B5FBF013190E6B9E0FDBD0B2990F5
:20096300E6BCE0FCA3E090E6BAE0FBA3E08B138C821210C3500990E6A07480F0020B5F9005
:20098300E6A07401F0020B5FE4BF810104FD601790E6B9E0FCBC0A0F90E6BCE0FBA3E08B65
:2009A30082120FD2020B5FEF703590E6B9E0FCBC032D90E6BAE0FBA3E0FCBB010EBC000BAD
:2009C300D20990E6A07480F0020B5FBB0205BC00028003020B5F90E6A07480F0020B5FEE10
:2009E300603790E6B9E07031A208E433FEA209E43325E0FC420690E740EEF090E741E4F0C2
:200A030090E6B504F090E68AE4F090E68B7402F090E6A07480F0020B5FED602890E6B9E08F
:200A2300702290E740E4F090E741F090E6B504F090E68AE4F090E68B7402F090E6A074808A
:200A4300F0020B5FBF02028003020B0190E6B9E0FEBE03028008BE01028003020B0190E6C3
:200A6300BAE0FDA3E0FE4D6003020B5F90E6BCE0FDA3E08D82120873AD82AE83ED4E700303
:200A8300020B5F90E6B9E0FCBC03188D828E83E0FC4304018D828E83ECF090E6A07480F0CB
:200AA300020B5F90E6BCE0FBA3E08B82C006C005120FC8D005D0064003020B5F8D828E833C
:200AC300E0FC5304FE8D828E83ECF090E6BCE0FDA3E0740F5DFB7C00530580E4C423CDC4C9
:200AE30023541F6DCD541FCD6DCDFEED4203EE420490E683EBF0E0FE74204EF0805EBF82A2
:200B03005590E6B9E0704F90E6BCE0FEA3E08E82120873AE82AF83EE4F60418E828F83E03D
:200B2300FE5306017F00E4BE0004BF000104FEB40100E433FE90E740F090E741E4F090E600
:200B4300B504F090E68AE4F090E68B7402F090E6A07480F0800690E6B81201C1AF9174EF89
:200B63005FF59190E65D7401F0D086D0D0D000D001D002D003D004D005D006D007D083D0A0
:200B830082D0F0D0E0D02232AE82AF837544007545E07401B5422DE5437029AA44AB458EC1
:200BA300828F83E493F8A3E493F9884F895088828983E493F888517552008A828B83120516
:200BC300F6020E217406B54241E543703D8E828F83A3A3E493FAA3E493FB4A700790E6A09F
:200BE3007401F02285444D85454E8A008B01884F89508A828B83E493FA8A51755200854D78
:200C030082854E831205F6020E217402B542028003020D408E828F83A3A3A3A3E493FBC397
:200C2300E5439B4003020D408E828F83A3A3A3A3A3E493FAA3E493FBE54375F002A42AF533
:200C430082EB35F0F583E493F546A3E493F54785444885454974092546F8E43547F9884A50
:200C6300894B754C80A844A945AA46AB478A4F8B50854682854783E493FB8B5175520088B3
:200C83008289831205F6854682854783E4932544F544E43545F545A94AAA4BAB4C85444D74
:200CA30085454E89828A838BF0121104FCA3121104FD8C4F8D508C828D83E493FC8C517501
:200CC3005200854D82854E83C003C002C0011205F6D001D002D00389828A838BF012110492
:200CE300FCA3121104FD8C828D83E4932544F544E43545F545740229F9E43AFA89828A8397
:200D03008BF0121104FCA3121104FD4C708F74022548FCE43549FD8C828D83E0FAA3E0FB6C
:200D23004A6003020E21E544C39400FAE54594E0FB8C828D83EAF0EBA3F0020E217403B5EC
:200D4300420474018001E4FD6023E543701FAB44AC45754FA57550119011A5E493FA8A5188
:200D63007552008B828C831205F6020E21ED7003020E1AAC437D00EC24FFFAED34FFFB74C1
:200D8300072EF582E43FF583E493F87900C3EA98EB648089F063F08095F04003020E1A745B
:200DA300082EF582E43FF583E493FEA3E493FF1CBCFF011DEDCC25E0CC33FDEC2EF582ED2D
:200DC3003FF583E493FEA3E493FF8544828545837402F0A385824485834504F0A3858244B0
:200DE3008583458E828F83E493FD60320EBE00010F854482854583EDF0A3858244858345EF
:200E0300E4F0A385824485834590E000E0FD0D0D90E000EDF080CC90E6A07401F0227E00A5
:200E23007FE090E6B57401F090E6B3EFF090E6B4EEF090E6A07480F022AE82AF83A3A3A349
:200E4300A3A3E493F55BA3E493F55C74042EFEE43FFF7551008E828F83E493FAC3E5519A65
:200E6300400122E55175F002A4255BF582E55C35F0F583E493F552A3E493F55374092552E2
:200E8300F8E43553FA88548A55755680C20C855282855383A3A3A3A3A3E493FAB53D028055
:200EA30003020F70A854A955AA56888289838AF0121104FBA3121104FD74012BF557E43D2B
:200EC300F558855782855883E493FDBD043C888289838AF0121104F559A3121104F55A85F0
:200EE3005982855A83A3A3E493FBB54F11855982855A83A3A3A3E493FBB550028004C20B70
:200F03008002D20BA20B920C8047855782855883E493FBBB053B300C38888289838AF0121C
:200F23001104FBA3121104FD74022BFBE43DFD8B828D83E493FC53040F8B828D83E493543F
:200F430080C423541FFB90E6834CF0E0FD74204DF0740228F8E439F9888289838AF0121177
:120F630004FBA3121104FD4B6003020EAD0551020E588D
:0411A5000403090432
:010F75003249
:010F76003248
:200F7700E54F455060467A01E54F25E0F54FE550334012F550E582954FE583955040030A0F
:200F970080E6C3E55013F550E54F13F54FC3E582954FF5F0E58395504005F58385F082C342
:0D0FB700E55013F550E54F13F54FDAE12238
:010FC40032FA
:20009E007800E84400600A790075923EE4F309D8FC7800E84400600C7900903E00E4F0A3F4
:0400BE00D8FCD9FA97
:010FC50032F9
:010FC60032F8
:010FC70032F7
:080FC80090E6A07480F0D32232
:010FD00032EE
:010FD10032ED
:1A0FD20090E740E4F090E6B504F090E68AE4F090E68B04F090E6A003F02267
:010FEC0032D2
:010FED0032D1
:010FEE0032D0
:010FEF0032CF
:010FF00032CE
:010FF10032CD
:010FF20032CC
:010FF30032CB
:010FF40032CA
:1C0FF50090E740E53DF090E6B57401F090E68AE4F090E68B04F090E6A003F02293
:0110110032AC
:0110120032AB
:0110130032AA
:0110140032A9
:20101500E583700BE58224FA400122B4001122E5826003D5E0FD0075E0FED583F674F9D5AA
:20103500E0FD22C007C006C001C000AE82AF83EE2EF8EF33F9EE28FEEF39FF90E600E0F874
:20105500794C20E416C3EF13CE13CEFF795AE820E309C3EF13CE13CEFF7963E58124FAF897
:20107500E926C313C313F9C3EE99F582EF9400F583D000D001D006D007500122021015748F
:2010950011C0E0121038158122C007C006AE82AF837411C0E0EE4F600D1EBEFF011F90032C
:0D10B500E812103880EF1581D006D0072218
:0110C20032FB
:1510C300AF82E513700D8F4F85135090115D120E3CD322C32278
:0110D80032E5
:0C10D90085824285144390115D020B8B50
:0110E50032D8
:0110E60032D7
:0110E70032D6
:0110E80032D5
:1A10E900E582FF6003BF01108F3D754FFF7550FF90115D120E3CD322C322CD
:0111030032B9
:0D00690075815C121129E5826003020066BA
:1C11040020F71430F6148883A88220F507E6A88375830022E280F7E49322E022FA
:01112000329C
:01112100329B
:01112200329A
:011123003299
:011124003298
:011125003297
:011126003296
:011127003295
:011128003294
:0411290075820022A9
:01112D00328F
:01112E00328E
:00000001FF
